{
  "contractName": "SimpleStorage",
  "abi": [
    {
      "inputs": [],
      "name": "caller",
      "outputs": [
        {
          "internalType": "address",
          "name": "",
          "type": "address"
        }
      ],
      "stateMutability": "view",
      "type": "function",
      "constant": true
    },
    {
      "inputs": [],
      "name": "storedData",
      "outputs": [
        {
          "internalType": "uint256",
          "name": "",
          "type": "uint256"
        }
      ],
      "stateMutability": "view",
      "type": "function",
      "constant": true
    },
    {
      "inputs": [
        {
          "internalType": "uint256",
          "name": "x",
          "type": "uint256"
        }
      ],
      "name": "set",
      "outputs": [],
      "stateMutability": "nonpayable",
      "type": "function"
    }
  ],
  "bytecode": "0x608060405234801561001057600080fd5b50610173806100206000396000f3fe608060405234801561001057600080fd5b50600436106100415760003560e01c80632a1afcd91461004657806360fe47b114610064578063fc9c8d3914610092575b600080fd5b61004e6100c6565b6040518082815260200191505060405180910390f35b6100906004803603602081101561007a57600080fd5b81019080803590602001909291905050506100cc565b005b61009a610117565b604051808273ffffffffffffffffffffffffffffffffffffffff16815260200191505060405180910390f35b60005481565b33600160006101000a81548173ffffffffffffffffffffffffffffffffffffffff021916908373ffffffffffffffffffffffffffffffffffffffff1602179055508060008190555050565b600160009054906101000a900473ffffffffffffffffffffffffffffffffffffffff168156fea264697066735822122057917be4268eb68f853be586256c7006bdc5ec2563aa6e290a62dc1f665d566364736f6c63430007060033",
  "immutableReferences": {},
  "source": "pragma solidity >=0.7.0 <0.9.0;\n\ncontract SimpleStorage {\n    uint public storedData;\n\n    address public caller;\n\n    function set(uint x) public {\n        caller = msg.sender;\n        storedData = x;\n    }\n}\n",
  "sourcePath": "/Users/tarun/Desktop/Dev/multisig-wallet/contracts/SimpleStorage.sol",
  "compiler": {
    "name": "solc",
    "version": "0.7.6+commit.7338295f.Emscripten.clang"
  },
  "schemaVersion": "3.4.3",
  "updatedAt": "2021-12-08T15:50:37.801Z",
  "networkType": "ethereum",
  "devdoc": {
    "kind": "dev",
    "methods": {},
    "version": 1
  },
  "userdoc": {
    "kind": "user",
    "methods": {},
    "version": 1
  }
}